:020000040800F2
:10000000A00A002091010008D51F00081B19000854
:10001000D91D0008830400081F2300080000000009
:10002000000000000000000000000000D91F0008D0
:100030008504000800000000D71F0008DB1F00082F
:10004000AB010008AB010008AB010008AB010008E0
:10005000AB010008AB010008AB010008AB010008D0
:10006000AB010008AB010008AB010008AB010008C0
:10007000AB010008AB010008AB010008AB010008B0
:10008000AB010008AB010008AB010008AB010008A0
:10009000AB010008AB010008AB010008AB01000890
:1000A000AB010008AB010008AB01000841200008CB
:1000B0004D200008AB010008AB010008AB010008AF
:1000C000AB010008AB010008AB010008AB01000860
:1000D000AB010008AB010008AB010008AB01000850
:1000E000AB010008AB010008AB01000800F002F80A
:1000F00000F03FF80AA090E8000C82448344AAF183
:100100000107DA4501D100F034F8AFF2090EBAE880
:100110000F0013F0010F18BFFB1A43F0010318473B
:10012000E02A0000002B0000103A24BF78C878C1F4
:10013000FAD8520724BF30C830C144BF04680C60ED
:10014000704700000023002400250026103A28BF35
:1001500078C1FBD8520728BF30C148BF0B60704739
:10016000642900F07D80002070471FB51FBD10B5C9
:1001700010BD00F050F91146FFF7F7FF02F0D6FA74
:1001800000F06EF903B4FFF7F2FF03BC00F072F960
:100190000948804709480047FEE7FEE7FEE7FEE71B
:1001A000FEE7FEE7FEE7FEE7FEE7FEE70448054957
:1001B000054A064B704700003D200008ED0000088E
:1001C000A0040020A00A0020A0060020A006002015
:1001D0000FB41CB5074B06AA7B44694600900598EE
:1001E00000F001F90020694600F010F91CBC5DF830
:1001F00014FB0000310200002DE9F0410E460446D8
:10020000002020622046E168884730B3252805D0C9
:10021000D4E901219047206A401CF2E7E1682046BA
:1002200000278847050018D0A5F14100192802D8F9
:1002300020354FF400673246294620462760FFF7F5
:100240008FFF40B1012804D0F61D26F007060836BE
:10025000D8E7361DD6E72846DAE7206ABDE8F08100
:100260002DE9F0410646002410687529314615A590
:1002700010D0AFF30080002802DA404212A507E058
:1002800031688A0701D511A502E0490704D510A5F8
:10029000012401E0AFF3008000210A2306F12407C6
:1002A00007E0B0FBF3F203FB120030307854104645
:1002B000491C0028F5D123462A463046BDE8F041C6
:1002C00000F032B8000000002D0000002B000000FC
:1002D000200000004FF0000200B5134694469646F9
:1002E000203922BFA0E80C50A0E80C50B1F1200149
:1002F000BFF4F7AF090728BFA0E80C5048BF0CC0F7
:100300005DF804EB890028BF40F8042B08BF704754
:1003100048BF20F8022B11F0804F18BF00F8012BC6
:1003200070477047704770472DE9F0470D46994672
:100330009246044600F124080168880604D5E06965
:1003400021F01001216000E00120A84201DD471BDF
:1003500000E00027A1697A1902EB0900081AA061E0
:100360002078C00602D42046AFF30080002608E0C3
:10037000D4E901211AF806009047206A401C761C37
:1003800020624E45F4DB2078C0060AD52046AFF344
:10039000008006E0D4E9012130209047206A401C0B
:1003A0002062381EA7F10107F4DC07E0D4E901213F
:1003B00018F805009047206A401C2062281EA5F10D
:1003C0000105F3DC2046AFF300802078000602D55B
:1003D0000220BDE8F0870120FBE7000001694A1C0C
:1003E00002610878704700B58FB0CDE90131002176
:1003F000059105497944CDE9031011466846FFF798
:10040000FBFE0FB000BD0000E5FFFFFF0A6802F829
:10041000010B0A607047754600F028F8AE460500EB
:100420006946534620F00700854618B020B5FFF70F
:10043000BDFEBDE820404FF000064FF000074FF032
:1004400000084FF0000B21F00701AC46ACE8C009F2
:10045000ACE8C009ACE8C009ACE8C0098D467047FB
:100460000446AFF300802046FFF78CFE004870473B
:100470004004002001491820ABBEFEE72600020020
:100480007047FEE7704700210A22B0FBF2F200201D
:1004900000E0401C8242FCDC491C6329F7DB70470A
:1004A00010B5C82000F012F8822002F0EDFA4FF4E7
:1004B000B4740121204602F027FBB42002F0E4FAD4
:1004C0002046BDE81040002102F01EBB70B5044676
:1004D00000F008F90546601C02D004480078044486
:1004E00000F000F9401BA042FAD370BD2C000020A0
:1004F0002DE9F84FDFF8B8910024A9F1040B234649
:100500000F2709F1040AABF1040EC9E00125A5404B
:100510002A40AA427DD1674ED1F804C0ACEB060850
:10052000B44532D014DCBCF1030F3AD009DCBCF185
:10053000000F2AD0BCF1010F1CD0BCF1020F31D149
:100540001DE0BCF1110F17D0BCF1120F2AD119E038
:10055000B8F5881F19D006DCB8F5803F15D0B8F57E
:10056000801F1FD111E0B8F5001F0ED0B8F5041F91
:1005700018D10AE0CB6815E0CB681B1D12E0CB68F0
:1005800008330FE0CB680C330CE08B682BB1012BE8
:100590004FF0080303D0456104E0042302E0056145
:1005A00000E00023FF2A01D8064601E000F104061E
:1005B0004FEA840501D9A5F12005D6F8008007FA95
:1005C00005FC28EA0C0803FA05F548EA0508C6F810
:1005D00000804D68ED0062D5374DAE6946F00106EA
:1005E000AE61AD6924F0030605F001050095334DB9
:1005F00006EB050CDCF80850A607360F07FA06F8DC
:1006000025EA0805DFF8B880404503D14FF000081F
:1006100017E044E0DFF8AC80404502D14FF001081C
:100620000FE0DFF8A480404502D14FF0020808E057
:10063000DFF89880404502D14FF0030801E04FF009
:10064000040808FA06F848EA0508CCF808804D685E
:10065000D9F80060ED024D4601D5164300E09643FF
:100660002E604D68DAF80060AD02554601D516439C
:1006700000E096432E604D68DBF80060AD035D46F8
:1006800001D5164300E096432E604D68DEF8006009
:10069000ED03754601D5164300E096432E60641CB9
:1006A0000D682A46E5407FF431AFBDE8F88F0000C1
:1006B0000804014000001110001002400000014039
:1006C00000080140000C01400010014000140140EE
:1006D0008068084000D0012070470AB1016170476E
:1006E0000904FBE701488068704700002C000020E7
:1006F00070B5040025D094F83D00002520B984F899
:100700003C50204600F048F9242084F83D00206841
:10071000016821F0010101602068016841F4004195
:1007200001602068016821F40041016000F090FA46
:100730004A4A6168914201D8494900E049498842E2
:1007400001D2012070BD48492368B0FBF1F15E6819
:1007500026F03F060E435E606368934206D94FF46D
:10076000967359434FF47A73B1FBF3F12368491C34
:100770001E6A26F03F0631431962616891420AD829
:100780004900401EB0FBF1F0401CC0F30B000428F0
:100790001ED204201CE0A368F3B301EBC10202EBFC
:1007A0000116421EB2FBF6F2521C42F480421205C0
:1007B00049D093B301EBC10202EB0111401EB0FB23
:1007C000F1F0401CC0F30B0040F4804040F40040C6
:1007D0002168CA694CF6FF739A431043C861D4E993
:1007E000071001432068026822F0C0021143016033
:1007F000D4E9030101432068826848F2FF339A4339
:1008000011438160D4E9050108432168CA6822F0D8
:10081000FF021043C86001E00EE016E020680168A6
:1008200041F0010101602564202084F83D0025632A
:1008300084F83E50002070BD01EB4106421EB2FB21
:10084000F6F2521CB3E70120C2E701EB4101401E62
:10085000B0FBF1F0401CC0F30B00B7E7A08601002D
:1008600080841E0000093D0040420F002DE9F84F32
:100870001F4690468A460446DDF82890FFF732FF6F
:10088000054694F83D0020287FD1192301224049D4
:100890002046009501F0D4F8002876D194F83C0069
:1008A000012872D0012084F83C0020680168C90743
:1008B00003D1016841F0010101602068016821F461
:1008C00000610160212084F83D00102084F83E0082
:1008D00000262664C4F824806785608D20852D4815
:1008E000E0622B464A465146204601F02FF890B967
:1008F000206841698069009036E02A4649462046D2
:1009000001F044F950B1206C042804D1206801683A
:1009100041F4007101600120BDE8F88F606A216830
:1009200000780861606A401C6062618D491E6185C3
:10093000218D491E89B2218522685369DB435B07FB
:100940000BD451B100781061606A401C6062608D08
:10095000401E6085208D401E20852A46494620463F
:1009600001F042F80028CED1208D0028C5D154F8DE
:100970003D0B016841F400710160202004F81E095C
:10098000E67766770020C7E7FFE70220C4E70000AC
:10099000020010000000FFFF10B586B0002100919A
:1009A00001910291039100680F4988421AD10F4CBE
:1009B000A06940F00800A061A069694600F0080045
:1009C0000490C0200090122001900320039008485A
:1009D000FFF78EFDE06940F40010E061E06900F48B
:1009E0000010049006B010BD0054004000100240FA
:1009F000000C014002488168027811448160704710
:100A00002C000020074810B5016841F0100101607A
:100A1000032000F075F80F2000F006F800F024F82D
:100A2000002010BD0020024070B50D4D04464FF46B
:100A30007A712878B1FBF0F00A490968B1FBF0F04F
:100A400000F0CCFA48B9102C07D200222146501EE3
:100A500000F036F800206C6070BD012070BD000011
:100A60002C000020380000200C4808B5816941F0B6
:100A700001018161816901F001010091C16941F0C9
:100A80008051C161C06900F0805000900448416805
:100A900021F0E06141F00071416008BD00100240AA
:100AA00000000140002809DB00F01F0201219140F5
:100AB0004009800000F1E020C0F8001170470000FC
:100AC000F0B40E4B1B680C46C3F30223C3F10705B9
:100AD000042D00D90425191D072901D2002300E0A7
:100AE000DB1E012606FA05F1491E214099409E4071
:100AF000761E16403143F0BC01F012BC0CED00E054
:100B0000064900F0070208684FF6FF03184040EA64
:100B10000220034A10430860704700000CED00E01B
:100B20000000FA052DE9F0470F46050061D0434E5D
:100B3000306800F00700B84209D2306820F00700A2
:100B400038433060306800F00700B84251D128685F
:100B50003B4C810712D5400703D5606840F4E06044
:100B600060602878000703D5606840F460506060DA
:100B70006068A96820F0F000084360602878C0072A
:100B800028D06868012810D02168022810D0890771
:100B900000292EDA616821F0030101436160FFF74B
:100BA000A1FD804641F288390DE021688903EFE715
:100BB0008901EDE7FFF796FDA0EB0801494502D951
:100BC0000320BDE8F0876068696800F00C00B0EBB6
:100BD000810FEFD1306800F00700B8420BD93068C0
:100BE00020F0070038433060306800F00700B8425A
:100BF00001D00120E5E72878400705D56068E9685D
:100C000020F4E060084360602878000706D560683B
:100C1000296920F4605040EAC100606000F028F8C3
:100C20006168084AC1F30311515CC8400649086075
:100C300006480068FFF7F8FE0020C2E700200240E7
:100C400000100240E62B0008380000203000002091
:100C50000448054900684968044AC1F30221515C0F
:100C6000C84070473800002000100240F62B0008F2
:100C70000E4A51680E4801F00C03042B11D0082BCA
:100C80000FD10C48C1F38343C903C05C0AD5516836
:100C9000084AC1F34041921E515C054A5043B0FBE3
:100CA000F1F07047044948437047000000100240CB
:100CB00000127A00D62B000800093D002DE9F84FFC
:100CC000040070D02078C04DC00749D06868C0F3D8
:100CD0008100012807D06868C0F38100022809D18B
:100CE0006868C00306D52868800339D56068002885
:100CF000E7D035E06068B0F5803F0BD010B1B0F5BB
:100D0000A02F11D0286820F480302860286820F4B3
:100D1000802002E0286840F480302860606890B14C
:100D2000FFF7E0FC06460AE0286840F480202860CF
:100D3000F0E700BFFFF7D6FC801B642873D8286853
:100D40008003F7D50CE0FFF7CDFC064605E000BFB9
:100D5000FFF7C8FC801B6428F0D828688003F7D40C
:100D600020789A4E80074FF001094FF0000839D5DE
:100D7000686810F00C0F07D06868C0F38100022883
:100D800009D16868C00306D42868800714D5206993
:100D9000012808D110E02069B0B1C6F80090FFF733
:100DA000A1FC074605E00AE1FFF79CFCC01B0228F6
:100DB000C4D828688007F7D52868616920F0F80052
:100DC00040EAC10028600DE0C6F80080FFF78AFC09
:100DD000074604E0FFF786FCC01B022823D82868DA
:100DE0008007F7D4207800072CD57948A169D9B1BC
:100DF000C0F80090FFF776FC074604E0FFF772FCAE
:100E0000C01B02280FD8686A8007F7D571484FF4D5
:100E1000FA510068B0FBF1F0009000BF0098411E4D
:100E20000091FAD20EE080E0C0F80080FFF75AFC93
:100E3000074604E0FFF756FCC01B022875D8686A15
:100E40008007F7D42078400760D5E8690027C00004
:100E500008D4E86940F08050E861E869012700F0B3
:100E6000805000905C480168C90513D4016883462E
:100E700041F480710160FFF735FC824606E000BF57
:100E8000FFF730FCA0EB0A0064284ED8DBF8000026
:100E9000C005F5D5E06801280AD008B1052813D0AF
:100EA000286A20F001002862286A20F0040002E08D
:100EB000286A40F001002862E06841F2883B98B15E
:100EC000FFF710FC82460BE0286A40F0040028621D
:100ED000EEE700BFFFF706FCA0EB0A0159455AD820
:100EE000286A8007F6D50CE0FFF7FCFB824605E098
:100EF000FFF7F8FBA0EB0A0159454CD8286A800798
:100F0000F6D41FB1E86920F08050E861E06988B349
:100F10006968C1F38101022944D00228C6F86080C3
:100F200004D0FFF7DFFB044638E034E0FFF7DAFBDC
:100F3000074604E0FFF7D6FBC01B02282BD8286821
:100F40008001F7D4206AB0F5803F05D16868A168B8
:100F500020F4003008436860D4E908010843696858
:100F600021F4741108436860C6F86090FFF7BAFB7B
:100F7000044606E025E000BFFFF7B4FB001B022893
:100F800009D828688001F7D51BE000BFFFF7AAFB4E
:100F9000001B022802D90320BDE8F88F28688001D1
:100FA000F4D40EE00128F7D06868226A00F480319A
:100FB000914204D1616A00F47010884201D001208E
:100FC000EAE70020E8E7000000100240000042428B
:100FD00080044242380000200070004010B5401EDE
:100FE000B0F1807F01D3012010BD4FF0E02460619B
:100FF0000F21601701F094F90020A0610720206103
:10100000002010BD7047704770B590F83C20012A51
:1010100026D0012480F83C40022280F83D2003685D
:101020005A689D6822F070060A6832435A600D4B78
:1010300002689A4208D0B2F1804F05D00A4B9A421A
:1010400002D00A4B9A4204D1496825F08003194323
:10105000916080F83D40002180F83C10084670BD4A
:10106000022070BD002C0140000400400008004038
:1010700010B5040003D094F83D0010B107E0012042
:1010800010BD002084F83C00204600F01FF802202C
:1010900084F83D00211D206800F0DEFF012084F867
:1010A000460084F83E0084F83F0084F8400084F84D
:1010B000410084F8420084F8430084F8440084F836
:1010C000450084F83D00002010BD000000B585B04B
:1010D000002100910191029103911B4A01681B4874
:1010E00091421CD1816941F400618161816901F4FF
:1010F00000610491816941F0040181618069694660
:1011000000F004000490901500901148FFF7F0F9EA
:10111000002201211B20FFF7D3FC1B2010E0B1F1BE
:10112000804F0FD1C16941F00101C161C069002246
:1011300000F00100049003211C20FFF7C1FC1C20DB
:10114000FFF7B0FC05B000BD002C014000100240CC
:101150000008014090F83D10012901D0012070479E
:10116000022180F83D1000680B49884208D0B0F198
:10117000804F05D00949884202D00949884204D1EC
:10118000816801F00701062903D0016841F00101DF
:101190000160002070470000002C01400004004066
:1011A0000008004070B5044690F83C000025012876
:1011B00017D0012684F83C60022084F83D002068A6
:1011C000826822F0770222F47F4282600868502809
:1011D00038D00DDC20284FD005DC90B3102811D179
:1011E0004AE0022070BD302846D040280AD13BE0BA
:1011F00060282FD070280DD0B0F5805F03D0B0F5F7
:10120000005F12D0012584F83D60002084F83C0086
:10121000284670BDCB68D1E90121206800F05FFF4E
:101220002068816841F0770109E0CB68D1E90121AC
:10123000206800F054FF2068816841F4804181609B
:10124000E1E719E0CA684968206800F0FDFF502115
:10125000206806E0CA684968206801F033F8602118
:10126000206800F046FFCEE7CA684968206800F0B1
:10127000EBFF40212068F4E7226801461046F0E7C2
:1012800070B50546007F012832D11A4C606970B1F3
:1012900001282DD10021284600F029FBA0602968F3
:1012A00000224A62E168884210D9401A14E0002105
:1012B000284600F01CFBE060012060612868016A9C
:1012C00021F00A0101622868016A10E0814204D914
:1012D000081A4FF6FF710844206162612868016AAC
:1012E00021F00A0101622868016A41F002010162ED
:1012F00070BD0000000000202DE9F041054690F887
:101300003C0000260C46012810D0012085F83C0046
:1013100072B1042A1CD0082A2CD00C2A50D00126E5
:10132000002085F83C003046BDE8F0810220FBE754
:10133000D4E90012E368286800F098FF2868816902
:1013400021F00C01816128688169A26811430FE0D6
:10135000D4E90012E368286800F0C6FF28688169B4
:1013600021F44061816128688169A26841EA022113
:101370008161D5E72868D4E9002C277B036A016ADC
:1013800021F480710162C16923F4007321F003012B
:1013900041EA0C0121F0F00C39074FF400774CEAD8
:1013A000116107EA02221A43C16102622868C16919
:1013B00021F00C01C1612868C169A26811432BE0CA
:1013C0002868D4E90021E768036AD0F820C02CF42B
:1013D000805CC0F820C0D0F81CC023F400532CF46B
:1013E000407C4CEA012121F4704C4FF6FF7101EA78
:1013F00007314FF4005741EA0C0107EA02321A4361
:10140000C16102622868C16921F44061C161286834
:10141000C169A26841EA0221C16181E710B50400F7
:1014200003D094F83D0010B107E0012010BD00206A
:1014300084F83C00204600F01EF8022084F83D00AD
:10144000211D206800F008FE012084F8460084F881
:101450003E0084F83F0084F8400084F8410084F89E
:10146000420084F8430084F8440084F8450084F87E
:101470003D00002010BD704730B50446002551B135
:1014800004290DD0082910D094F8410094F8452083
:10149000012811D10EE094F83E0094F84220F7E7BD
:1014A00094F83F0094F84320F2E794F8400094F851
:1014B0004420EDE7012A01D0012030BD022059B1BE
:1014C000042912D0082919D084F8410084F8450075
:1014D0000C2938D0012534E084F83E0084F842001D
:1014E0002068C26842F0020210E084F83F0084F8ED
:1014F00043002068C26842F0040207E084F840001C
:1015000084F844002068C26842F00802C2600122E8
:10151000206800F0D7FD0E492068884208D0B0F15D
:10152000804F05D00B49884202D00B49884204D134
:10153000816801F00701062903D0016841F001012B
:101540000160284630BD2068C26842F01002DDE725
:10155000002C0140000400400008004070B5044623
:10156000006801694FF00005C943890715D4C168B7
:10157000C943890711D4E91E016101202077206841
:1015800080698007204602D0FFF77AFE04E000F071
:10159000C9F8204600F05BF9257720680169C94346
:1015A000490717D4C168C943490713D46FF0040130
:1015B0000161022020772068806910F4407F204676
:1015C00002D0FFF75DFE04E000F0ACF8204600F02A
:1015D0003EF9257720680169C943090716D4C16817
:1015E000C943090712D46FF0080101610420207774
:1015F0002068C0698007204602D0FFF741FE04E062
:1016000000F090F8204600F022F925772068016963
:10161000C943C90617D4C168C943C90613D46FF0BA
:1016200010010161082020772068C06910F4407F14
:10163000204602D0FFF724FE04E000F073F82046B5
:1016400000F005F9257720680169C943C90708D169
:10165000C168C943C90704D1891E0161204600F051
:1016600045F920680169C943090609D4C168C9431D
:10167000090605D46FF0800101612046FFF7C2FC26
:1016800020680169C943490609D4C168C9434906AC
:1016900005D46FF040010161204600F03DF920685B
:1016A0000169C94389060BD4C168C943890607D4B7
:1016B0006FF0200101612046BDE87040FFF7A3BC38
:1016C00070BD000000B585B000210091019102912C
:1016D00003910068B0F1804F1BD10F48816941F040
:1016E000080181618069694600F0080004904FF4A8
:1016F000806000900220019003900848FEF7F8FEF9
:101700000748416821F4407141F0E06141F4007103
:10171000416005B000BD000000100240000C014017
:1017200000000140704770B5044690F83C00002668
:101730000D4601280FD0012084F83C006AB1042A2C
:101740001DD0082A2FD00C2A3FD00126002084F873
:101750003C00304670BD022070BD206800F0D2FC15
:101760002068816941F0080181612068816921F068
:1017700004018161206881692A69114311E02068B0
:1017800000F0E8FC2068816941F400618161206813
:10179000816921F480618161206881692A6941EA57
:1017A00002218161D2E7206800F000FD2068C16954
:1017B00041F00801C1612068C16921F00401C161E3
:1017C0002068C1692A69114311E0206800F01AFD00
:1017D0002068C16941F40061C1612068C16921F4D8
:1017E0008061C1612068C1692A6941EA0221C16141
:1017F000ACE710B5040003D094F83D0010B107E049
:10180000012010BD002084F83C00204600F01EF8A6
:10181000022084F83D00211D206800F01DFC0120FD
:1018200084F8460084F83E0084F83F0084F84000C5
:1018300084F8410084F8420084F8430084F84400AE
:1018400084F8450084F83D00002010BD70477047C3
:1018500010B50446022249B104290ED0082913D03C
:1018600094F84100012816D0012010BD94F83E00E4
:101870000128F9D184F83E200FE094F83F000128B8
:10188000F2D184F83F2008E094F840000128EBD121
:1018900084F8402001E084F841200122206800F013
:1018A00011FC0F492068884203D1426C42F4004287
:1018B00042642068884208D0B0F1804F05D00949C1
:1018C000884202D00849884204D1816801F00701AA
:1018D000062903D0016841F001010160002010BD1C
:1018E000002C014000040040000800407047024600
:1018F000002041B1042909D008290AD00C2901D1BE
:101900001068006C70471068406B70471068806BFF
:1019100070471068C06B70477047FEE701684A69FE
:10192000D24352050FD46FF480624A61002140F81F
:10193000301F202242738173026942F00402026167
:10194000017301207047002070470000F8B504467D
:10195000C06A1E460D461746082807D0012805D044
:1019600010F5803F02D0206B122804D12068016856
:1019700041F480710160134600224FF001112046AE
:10198000009600F05DF840B120680068C00502D5FF
:101990004FF4007020640320F8BD2069B0F5804F3B
:1019A0000ED00620216800EAD51040F0F000086152
:1019B00033463A460B49204600F08AF878B902E0EF
:1019C00005F0FE0000E0E8B22168086105493346F1
:1019D0003A46891F204600F07BF80028DCD0012021
:1019E000F8BD00000800010070B516460D4604461B
:1019F0001EE02046FFF792FF08B1012070BD681C71
:101A000016D0FEF76FFE801BA84200D885B920686B
:101A10004069C04340070BD5002044F8300F202117
:101A20006173A073216941F0200121612073E4E713
:101A300020684069C0434007DBD4002070BD00002F
:101A40002DE9F047984617460D460446C1F3074670
:101A5000DDF820902AE000BFB8F1FF3F26D0FEF766
:101A600041FEA0EB0901414502D8B8F1000F1DD19C
:101A70002068012E16D0806925EA00000004000CC1
:101A800012D00020B84211D1002044F8300F20219C
:101A90006173A073216941F020012161207301204D
:101AA000BDE8F0874069E7E70120EBE72068012EF9
:101AB0000AD0806925EA00000004000C06D000204E
:101AC000B842C9D00020EBE74069F3E70120F7E70F
:101AD0002DE9F047984616460D4604464FF000099A
:101AE0004FF0200AC1F3074723E020684069C04354
:101AF000400515D42068016841F400710160216837
:101B00006FF480604861C4F8309084F83DA084F898
:101B10003E90216C41F00401216484F83C9021E066
:101B2000701C06D0FEF7DEFDA0EB0800B04203D823
:101B300016B1012F1FD021E02068012F15D0806938
:101B400025EA00000004000C18D000BF44F8309FC4
:101B500084F80DA084F80E90216941F020012161E4
:101B600084F80C900120BDE8F087406925EA000068
:101B70000004000CEAD12068406901E02068806917
:101B800025EA00000004000CAFD1ECE770B5164662
:101B90000D4604461EE02046FFF7C0FE08B10120B6
:101BA00070BD681C16D0FEF79DFD801BA84200D8B2
:101BB00085B920684069C04300060BD5002044F871
:101BC000300F20216173A073216941F02001216150
:101BD0002073E4E720684069C0430006DBD400209E
:101BE00070BD00002DE9F04385B000242A48009420
:101BF000019402940394816941F01001816181692B
:101C000001F010010491816941F020018161816935
:101C100001F020010491816941F00801816181692D
:101C200001F008010491816941F00401816180693A
:101C3000DFF8688000F004004CF21B3504900022AD
:101C400029464046FEF749FDDFF854904FF41E4701
:101C5000002239464846FEF740FD4FF46040CDE98A
:101C6000000469460F480294FEF742FC00950226E4
:101C700001250396CDE9015469464046FEF738FC3C
:101C800000970396CDE9015469464846FEF730FCBB
:101C900005B0BDE8F083000000100240000C0140D8
:101CA000000801400010014010B58AB0002423480C
:101CB000049405940694079408940994009401945C
:101CC00002941D49039401604721C0E901144FF6B5
:101CD000FF71C0E9031444618461FFF7C9F908B1D9
:101CE00072B6FEE74FF48050049004A91348FFF742
:101CF00059FA08B172B6FEE71048FFF78FFB08B13A
:101D000072B6FEE7089408A90C480994FFF77CF91D
:101D100008B172B6FEE7022000900120CDE901046F
:101D20000022694605480394FFF7E6FA002801D02F
:101D300072B6FEE70AB010BD002C014090000020F2
:101D400010B58EB000240794089409940A940B945B
:101D50001C2168460C94FEF7BDFA1E484FF08041E6
:101D600001608F21C0E9011442F20F71C0E9031430
:101D70008461FFF77DF908B172B6FEE74FF4805039
:101D8000079007A91348FFF70DFA08B172B6FEE7EE
:101D90001048FFF72EFD08B172B6FEE70B940BA9B1
:101DA0000C480C94FFF730F908B172B6FEE76020DA
:101DB000CDE9000402940822694606480494FFF71E
:101DC000B2FC08B172B6FEE70248FFF77BFC0EB02A
:101DD00010BD0000D8000020FEE70000094A10B541
:101DE00042F21070084B0021C2F8280053F821403D
:101DF000844200D22046491C89B29629F6D39062CB
:101E000010BD000000000020E801002010B50121F5
:101E100040F2726000F046FE012140F2DC5000F01A
:101E2000A5FE822000F030FE01214FF4AF7000F0DB
:101E30006BFEBDE81040B42000F026BE70B56420F3
:101E4000FEF744FB204C4FF4004503E00021012045
:101E500000F05AFE29462046FEF73AFC0028F5D04D
:101E60004FF4005529462046FEF732FC10B34FF4DC
:101E7000804529462046FEF72BFC00B34FF4AF7493
:101E80000121204600F040FE822000F0FDFD64208C
:101E9000FEF71CFB0021204600F036FE012140F237
:101EA000726000F0FFFDBDE87040012140F2DC509F
:101EB00000F05CBE0021012000F0F4FDD2E700211B
:101EC000012000F053FED4E70010014070B56420FB
:101ED000FEF7FCFA1D4C4FF4004502E0012000F033
:101EE00013FE29462046FEF7F3FB4FF000010028C1
:101EF000F4D04FF42F75284600F0D4FD4FF48046FF
:101F000003E00021012000F031FE31462046FEF7BB
:101F1000DFFB0028F5D04FF4AF740121204600F01C
:101F2000F3FD822000F0B0FD6420FEF7CFFA00211F
:101F3000204600F0E9FD012140F2DC5000F016FEE1
:101F40002846BDE87040012100F0ACBD0010014002
:101F500070B56420FEF7BAFA1D4C4FF4004502E05C
:101F6000012000F0D1FD29462046FEF7B1FB4FF0DD
:101F700000010028F4D040F27E45284600F092FD92
:101F80004FF4804603E00021012000F0EFFD3146D0
:101F90002046FEF79DFB0028F5D04FF4AF740121D9
:101FA000204600F0B1FD822000F06EFD6420FEF7B7
:101FB0008DFA0021204600F0A7FD0121284600F0FF
:101FC00071FDBDE87040012140F2DC5000F0CEBD53
:101FD00000100140FEE770477047FEF70BBD30B5BB
:101FE0008FB028216846FEF775F914210AA8FEF77C
:101FF00071F901210804CDE90010002402940225A2
:102000000491CDE907504FF4E01009906846FEF7BF
:1020100055FE08B172B6FEE70F20CDE90A054FF470
:102020008060CDE90C4002210AA80E94FEF77AFDEB
:10203000002801D072B6FEE70FB030BD7047000037
:102040000148FFF78BBA0000900000200148FFF71D
:1020500085BA0000D8000020F0B50268164B174C76
:10206000174D4FF08047984205D0B84203D0A042A8
:1020700001D0A84203D122F070064A683243984248
:1020800005D0B84203D0A04201D0A84203D122F427
:102090004074CA6822434C6922F0800222430260E5
:1020A0008A68C2620A688262984201D10969016342
:1020B00001214161F0BD0000002C014000040040FE
:1020C0000008004010B501F01F030121046A994087
:1020D0008C430462016A9A401143016210BD10B53D
:1020E000846842EA032224F47F440A432243826044
:1020F00010BD826822F070020A4342F0070181603D
:102100007047000030B5036A026A22F001020262E1
:102110004268846924F073050C682C4323F002059F
:102120008B682B430A4DA8420BD123F00805CB68DE
:1021300022F440722B434D6923F0040315438A694E
:102140002A434260846149684163036230BD0000F4
:10215000002C014030B5026A036A23F010030362C9
:10216000436884690D6824F4E64444EA05248D68D4
:1021700022F0200242EA05120B4DA8420ED1CD6892
:1021800022F0800242EA05124D6923F4406343EADB
:1021900085038D6922F0400243EA85034360846130
:1021A00049688163026230BD002C014030B5036A8A
:1021B000026A22F4807202624268C46923F40073E6
:1021C00024F073050C682C438D6843EA05230C4DFD
:1021D000A8420ED1CD6823F4006343EA05234D697C
:1021E00022F4405242EA05128D6923F4806342EAE8
:1021F00005124260C4614968C163036230BD0000DA
:10220000002C014030B5046A026A22F48052026256
:102210004268C3690D6823F4E64343EA05238D68E9
:1022200024F4005444EA0534064DA84204D14D6913
:1022300022F4804242EA85124260C3614968016427
:10224000046230BD002C014010B5036A046A24F01A
:1022500001040462846924F0F00444EA021423F0C7
:102260000A020A438461026210BD000070B5056A6B
:10227000046A24F00104046284690F4EB04208D05D
:10228000B0F1804F05D00D4EB04202D00C4EB0429E
:1022900003D124F00304144301E044F001041A07BD
:1022A00024F0F00444EA126225F00A0301F00A0166
:1022B00019438261016270BD002C0140000400409E
:1022C0000008004010B5036A046A24F01004046298
:1022D000846923F0A00324F4704444EA023243EA00
:1022E00001118261016210BD30B5046A056A25F0F2
:1022F00010050562856925F4407545EA022222F43D
:1023000070454FF6FF7202EA033224F0A0032A431D
:10231000A02404EA011119438261016230BDFEE785
:102320000907090E002804DB00F1E02080F8001402
:10233000704700F00F0000F1E02080F8141D704796
:102340002DE9F0414FF4FA60FEF7C0F800F086FB8B
:10235000184C0126206AA1690A30814227D2164F03
:10236000002500BF00F07AFBA06947F825006D1C2E
:10237000962DF7DBFFF732FDE169606A0A18A06A63
:10238000B0EB520F07D9236A0B44B0EB530F02D2C4
:10239000A680BDE8F081236A1944B0EB510F01D942
:1023A0002680F6E7B0EB520FF3D26680F1E7E680C5
:1023B000EFE7000000000020E801002010B58020B9
:1023C00000F050F80024202000F06CF8641C462C2B
:1023D000F9DB10BD10B53220FEF778F8302000F0A0
:1023E00041F80520FEF772F8302000F03BF801209C
:1023F000FEF76CF8302000F035F80A20FEF766F89A
:10240000202000F02FF80A20FEF760F8282000F0C6
:1024100029F80120FEF75AF8082000F023F80120DF
:10242000FEF754F8012000F01DF80120FEF74EF8E9
:102430000120FEF74BF8062000F014F80120FEF70B
:1024400045F8BDE810400C2000F00CB810B1012890
:1024500005D102E041F0800101E041F0C001C8B2C5
:10246000AFF300801CB500F0F00141F00C028DF8D4
:10247000042041F0080100018DF8051040F00C0126
:102480008DF8061040F008008DF8070064200090D9
:10249000042301AA4E210248FEF7E8F91CBD000002
:1024A0003C0000201CB500F0F00141F00D028DF859
:1024B000042041F0090100018DF8051040F00D01E4
:1024C0008DF8061040F009008DF807006420009098
:1024D000042301AA4E210248FEF7C8F91CBD0000E2
:1024E0003C00002010B5044602E0641CFFF7DAFF50
:1024F00020780028F9D110BD2DE9F047774C012252
:1025000051022046FEF7E9F80122D1027448FEF795
:10251000E4F8012208212046FEF7DFF800273946BB
:102520003846FFF793FF6FA0FFF7DCFF4FF47A7890
:1025300044464046FDF7CAFF00210120FFF786FF11
:102540006BA0FFF7CFFF2046FDF7C0FF0021012061
:10255000FFF77CFF67A0FFF7C5FF2046FDF7B6FF3A
:1025600000210120FFF772FF63A0FFF7BBFF2046A9
:10257000FDF7ACFFFFF722FF604D614C002600BF66
:1025800000F06CFA288B80B224F81600761C074401
:10259000642EF5DB4FF0640AB7FBFAF00027E86120
:1025A00039463846FFF752FF56A0FFF79BFFC1465A
:1025B00046464046FDF78AFFFFF700FF0021084628
:1025C000FFF744FF51A0FFF78DFF3046FDF77EFF78
:1025D00000210120FFF73AFF45A0FFF783FF3046B7
:1025E000FDF774FF00210120FFF730FF41A0FFF746
:1025F00079FF3046FDF76AFF00210120FFF726FF33
:102600003DA0FFF76FFF3046FDF760FFFFF7D6FEF6
:102610005FF0000600F022FA288B80B224F8160042
:10262000761C0744642EF5DBD046B7FBF8F0002794
:10263000286239463846FFF709FF32A0FFF752FFFC
:102640004E464846FDF742FFFFF7B8FE0021084618
:10265000FFF7FCFE31A0FFF745FF3046FDF736FFE0
:1026600000210120FFF7F2FE21A0FFF73BFF3046DB
:10267000FDF72CFF00210120FFF7E8FE1DA0FFF76A
:1026800031FF3046FDF722FF00210120FFF7DEFE7B
:1026900019A0FFF727FF3046FDF718FFFFF78EFE62
:1026A0005FF0000600F0DAF9288B80B224F81600FB
:1026B000761C0744642EF5DBB7FBF8F00021686256
:1026C0000846FFF7C3FE0FA0FFF70CFF4846FDF7D3
:1026D000FDFEBDE8F047FFF771BE0000000C0140B1
:1026E00000080140486F63204D617520446F000071
:1026F0003300000032000000310000000000002024
:1027000020010020446F6E6500000000486F6320C8
:102710004D61752058616E68204C6100486F6320E0
:102720004D61752056616E6700000000CCB0FEF769
:1027300069F9FFF754FCFFF755FAFFF7B5FAFFF711
:10274000FFFAB748B54900240160B649C0E9011451
:102750004FF48041C0E9034144618461C461046273
:10276000FDF7C6FF08B172B6FEE7AD489C30FEF734
:10277000F1FCAB485430FEF7EDFCA94808219C3031
:10278000FFF766F8A64800215430FEF775FEA64D07
:10279000012211462846FDF7A0FF0022022128460B
:1027A000FDF79BFFFFF716FEFFF7A6FE4FF00008B0
:1027B000A1469E4C0125474646464FF47A7A00BF13
:1027C000FFF7BEFDA088012842D108F10108FFF7FC
:1027D000F5FD00210846FFF739FE95A0FFF782FEC0
:1027E00005210020FFF732FE92A0FFF77BFE0A21B1
:1027F0000020FFF72BFE91A0FFF774FE00210120BF
:10280000FFF724FE42468FA16846FDF7E1FC6846CB
:10281000FFF768FE05210120FFF718FE3A4689A15F
:1028200019A8FDF7D5FC19A8FFF75CFE0A210120C5
:10283000FFF70CFE324683A132A8FDF7C9FC32A88F
:10284000FFF750FE012D07D0FDF72AFEFFF73EFBF4
:102850002088012806D047E0FFF7D8FAFFF736FBBB
:102860000025F5E7761CFFF7A9FD00210846FFF7D4
:10287000EDFD6FA0FFF736FE05210020FFF7E6FD16
:102880006CA0FFF72FFE0A210020FFF7DFFD6BA0F1
:10289000FFF728FE00210120FFF7D8FD424669A17D
:1028A0006846FDF795FC6846FFF71CFE05210120F0
:1028B000FFF7CCFD3A4663A119A8FDF789FC19A8DA
:1028C000FFF710FE0A210120FFF7C0FD32465DA18F
:1028D00032A8FDF77DFC32A8FFF704FE012D4DD094
:1028E000FDF7DEFDFFF7AAFA608801284CD0FFF75C
:1028F00065FD00210846FFF7A9FD4DA0FFF7F2FD99
:1029000005210020FFF7A2FD4AA0FFF7EBFD0A21F9
:102910000020FFF79BFD49A0FFF7E4FD0021012007
:10292000FFF794FD424647A16846FDF751FC684613
:10293000FFF7D8FD05210120FFF788FD3A4641A1A8
:1029400019A8FDF745FC19A8FFF7CCFD0A210120C5
:10295000FFF77CFD32463BA132A8FDF739FC32A8D7
:10296000FFF7C0FD5046FDF7B1FDA4F80090A4F8B4
:102970000290A4F80490A4F8069021E7FFF746FA25
:10298000FFF75CFA0025AFE77F1CFFF717FD00217A
:102990000846FFF75BFD26A0FFF7A4FD05210020F8
:1029A000FFF754FD23A0FFF79DFD0A210020FFF74C
:1029B0004DFD22A0FFF796FD00210120FFF746FD07
:1029C000424620A16846FDF703FC6846FFF78AFDF2
:1029D00005210120FFF73AFD3A461AA119A8FDF793
:1029E000F7FB19A8FFF77EFD0A210120FFF72EFD56
:1029F000324614A132A8FDF7EBFB32A8FFF772FDB7
:102A0000012D04D0FDF74CFDFFF7A2FAAAE7FFF76E
:102A1000FDF9FFF79DFA0025A4E7000000540040EF
:102A20003C000020A0860100000C014000000020B6
:102A3000446F000056616E670000000058616E68C8
:102A4000000000002564000010B5401A029CE41A42
:102A50006043511A90FBF1F0184410BD10B5084CBA
:102A600000224FF400412046FDF737FE00224FF4CC
:102A700080412046FDF731FE02490869886110BD9A
:102A8000000C01400000002008B540F2E241009136
:102A9000FA23B4220021FFF7D7FF4FF08041C8632B
:102AA00008BD00002DE9F041164D0C4606460022F7
:102AB0004FF400712846FDF710FE012C0AD00022C9
:102AC00010212846FDF709FE00244FF480784FF4CA
:102AD0007A7712E00122F3E7012241462846FDF70A
:102AE000FCFD3846FDF7CFFC002241462846FDF7A5
:102AF000F4FD3846FDF7C7FC641CB442ECDBBDE8CE
:102B0000F0810000000C01402DE9F041164D0C460B
:102B1000064600224FF400612846FDF7DEFD6915E8
:102B2000012C09D000222846FDF7D7FD00244FF4E0
:102B300080684FF47A7712E00122F4E701224146DF
:102B40002846FDF7CAFD3846FDF79DFC00224146A8
:102B50002846FDF7C2FD3846FDF795FC641CB442DB
:102B6000ECDBBDE8F0810000000801402DE9F041F8
:102B70000C460646002208211448FDF7AEFD144D10
:102B80004FF48051012C09D000222846FDF7A5FD05
:102B900000244FF400484FF47A7712E00122F4E762
:102BA000012241462846FDF798FD3846FDF76BFCAB
:102BB000002241462846FDF790FD3846FDF763FCAC
:102BC000641CB442ECDBBDE8F0810000000C014065
:102BD00000080140010202030405060708090A0B68
:102BE0000C0D0E0F1010000000000000000001028C
:102BF00003040607080900000000010203040000A6
:102C0000202C0008000000203C00000028010008E3
:102C10005C2C00083C000020640A0000440100080D
:102C200000000000000000000000000000000000A4
:102C30000000000000000000000000000000000094
:102C40000000000000000000000000000100000083
:0C2C500010000000000000000024F40050
:04000005080000ED02
:00000001FF
